{
  "_format": "hh3-artifact-1",
  "contractName": "ResourceSwap",
  "sourceName": "contracts/ResourceSwap.sol",
  "abi": [
    {
      "inputs": [],
      "stateMutability": "nonpayable",
      "type": "constructor"
    },
    {
      "inputs": [
        {
          "internalType": "address",
          "name": "sender",
          "type": "address"
        },
        {
          "internalType": "uint256",
          "name": "tokenId",
          "type": "uint256"
        },
        {
          "internalType": "address",
          "name": "owner",
          "type": "address"
        }
      ],
      "name": "ERC721IncorrectOwner",
      "type": "error"
    },
    {
      "inputs": [
        {
          "internalType": "address",
          "name": "operator",
          "type": "address"
        },
        {
          "internalType": "uint256",
          "name": "tokenId",
          "type": "uint256"
        }
      ],
      "name": "ERC721InsufficientApproval",
      "type": "error"
    },
    {
      "inputs": [
        {
          "internalType": "address",
          "name": "approver",
          "type": "address"
        }
      ],
      "name": "ERC721InvalidApprover",
      "type": "error"
    },
    {
      "inputs": [
        {
          "internalType": "address",
          "name": "operator",
          "type": "address"
        }
      ],
      "name": "ERC721InvalidOperator",
      "type": "error"
    },
    {
      "inputs": [
        {
          "internalType": "address",
          "name": "owner",
          "type": "address"
        }
      ],
      "name": "ERC721InvalidOwner",
      "type": "error"
    },
    {
      "inputs": [
        {
          "internalType": "address",
          "name": "receiver",
          "type": "address"
        }
      ],
      "name": "ERC721InvalidReceiver",
      "type": "error"
    },
    {
      "inputs": [
        {
          "internalType": "address",
          "name": "sender",
          "type": "address"
        }
      ],
      "name": "ERC721InvalidSender",
      "type": "error"
    },
    {
      "inputs": [
        {
          "internalType": "uint256",
          "name": "tokenId",
          "type": "uint256"
        }
      ],
      "name": "ERC721NonexistentToken",
      "type": "error"
    },
    {
      "inputs": [],
      "name": "ReentrancyGuardReentrantCall",
      "type": "error"
    },
    {
      "anonymous": false,
      "inputs": [
        {
          "indexed": true,
          "internalType": "address",
          "name": "owner",
          "type": "address"
        },
        {
          "indexed": true,
          "internalType": "address",
          "name": "approved",
          "type": "address"
        },
        {
          "indexed": true,
          "internalType": "uint256",
          "name": "tokenId",
          "type": "uint256"
        }
      ],
      "name": "Approval",
      "type": "event"
    },
    {
      "anonymous": false,
      "inputs": [
        {
          "indexed": true,
          "internalType": "address",
          "name": "owner",
          "type": "address"
        },
        {
          "indexed": true,
          "internalType": "address",
          "name": "operator",
          "type": "address"
        },
        {
          "indexed": false,
          "internalType": "bool",
          "name": "approved",
          "type": "bool"
        }
      ],
      "name": "ApprovalForAll",
      "type": "event"
    },
    {
      "anonymous": false,
      "inputs": [
        {
          "indexed": false,
          "internalType": "uint256",
          "name": "_fromTokenId",
          "type": "uint256"
        },
        {
          "indexed": false,
          "internalType": "uint256",
          "name": "_toTokenId",
          "type": "uint256"
        }
      ],
      "name": "BatchMetadataUpdate",
      "type": "event"
    },
    {
      "anonymous": false,
      "inputs": [
        {
          "indexed": false,
          "internalType": "uint256",
          "name": "_tokenId",
          "type": "uint256"
        }
      ],
      "name": "MetadataUpdate",
      "type": "event"
    },
    {
      "anonymous": false,
      "inputs": [
        {
          "indexed": true,
          "internalType": "address",
          "name": "from",
          "type": "address"
        },
        {
          "indexed": true,
          "internalType": "address",
          "name": "to",
          "type": "address"
        },
        {
          "indexed": true,
          "internalType": "uint256",
          "name": "tokenId",
          "type": "uint256"
        }
      ],
      "name": "Transfer",
      "type": "event"
    },
    {
      "inputs": [],
      "name": "COOLDOWN",
      "outputs": [
        {
          "internalType": "uint256",
          "name": "",
          "type": "uint256"
        }
      ],
      "stateMutability": "view",
      "type": "function"
    },
    {
      "inputs": [],
      "name": "LOCK_DURATION",
      "outputs": [
        {
          "internalType": "uint256",
          "name": "",
          "type": "uint256"
        }
      ],
      "stateMutability": "view",
      "type": "function"
    },
    {
      "inputs": [],
      "name": "MAX_OWNED",
      "outputs": [
        {
          "internalType": "uint256",
          "name": "",
          "type": "uint256"
        }
      ],
      "stateMutability": "view",
      "type": "function"
    },
    {
      "inputs": [
        {
          "internalType": "uint256",
          "name": "offerId",
          "type": "uint256"
        }
      ],
      "name": "acceptOffer",
      "outputs": [],
      "stateMutability": "nonpayable",
      "type": "function"
    },
    {
      "inputs": [
        {
          "internalType": "address",
          "name": "to",
          "type": "address"
        },
        {
          "internalType": "uint256",
          "name": "tokenId",
          "type": "uint256"
        }
      ],
      "name": "approve",
      "outputs": [],
      "stateMutability": "nonpayable",
      "type": "function"
    },
    {
      "inputs": [
        {
          "internalType": "address",
          "name": "owner",
          "type": "address"
        }
      ],
      "name": "balanceOf",
      "outputs": [
        {
          "internalType": "uint256",
          "name": "",
          "type": "uint256"
        }
      ],
      "stateMutability": "view",
      "type": "function"
    },
    {
      "inputs": [
        {
          "internalType": "uint256",
          "name": "offerId",
          "type": "uint256"
        }
      ],
      "name": "cancelOffer",
      "outputs": [],
      "stateMutability": "nonpayable",
      "type": "function"
    },
    {
      "inputs": [
        {
          "internalType": "uint256",
          "name": "offeredTokenId",
          "type": "uint256"
        },
        {
          "internalType": "uint256",
          "name": "requestedTokenId",
          "type": "uint256"
        }
      ],
      "name": "createOffer",
      "outputs": [
        {
          "internalType": "uint256",
          "name": "",
          "type": "uint256"
        }
      ],
      "stateMutability": "nonpayable",
      "type": "function"
    },
    {
      "inputs": [
        {
          "internalType": "uint256",
          "name": "tokenId",
          "type": "uint256"
        }
      ],
      "name": "getApproved",
      "outputs": [
        {
          "internalType": "address",
          "name": "",
          "type": "address"
        }
      ],
      "stateMutability": "view",
      "type": "function"
    },
    {
      "inputs": [
        {
          "internalType": "address",
          "name": "owner",
          "type": "address"
        },
        {
          "internalType": "address",
          "name": "operator",
          "type": "address"
        }
      ],
      "name": "isApprovedForAll",
      "outputs": [
        {
          "internalType": "bool",
          "name": "",
          "type": "bool"
        }
      ],
      "stateMutability": "view",
      "type": "function"
    },
    {
      "inputs": [
        {
          "internalType": "address",
          "name": "",
          "type": "address"
        }
      ],
      "name": "lastActionAt",
      "outputs": [
        {
          "internalType": "uint256",
          "name": "",
          "type": "uint256"
        }
      ],
      "stateMutability": "view",
      "type": "function"
    },
    {
      "inputs": [
        {
          "internalType": "address",
          "name": "",
          "type": "address"
        }
      ],
      "name": "lockedUntil",
      "outputs": [
        {
          "internalType": "uint256",
          "name": "",
          "type": "uint256"
        }
      ],
      "stateMutability": "view",
      "type": "function"
    },
    {
      "inputs": [
        {
          "internalType": "string",
          "name": "_name",
          "type": "string"
        },
        {
          "internalType": "string",
          "name": "_rtype",
          "type": "string"
        },
        {
          "internalType": "uint8",
          "name": "_tier",
          "type": "uint8"
        },
        {
          "internalType": "uint256",
          "name": "_value",
          "type": "uint256"
        },
        {
          "internalType": "string",
          "name": "_ipfsUri",
          "type": "string"
        }
      ],
      "name": "mintResource",
      "outputs": [
        {
          "internalType": "uint256",
          "name": "",
          "type": "uint256"
        }
      ],
      "stateMutability": "nonpayable",
      "type": "function"
    },
    {
      "inputs": [],
      "name": "name",
      "outputs": [
        {
          "internalType": "string",
          "name": "",
          "type": "string"
        }
      ],
      "stateMutability": "view",
      "type": "function"
    },
    {
      "inputs": [],
      "name": "nextOfferId",
      "outputs": [
        {
          "internalType": "uint256",
          "name": "",
          "type": "uint256"
        }
      ],
      "stateMutability": "view",
      "type": "function"
    },
    {
      "inputs": [
        {
          "internalType": "uint256",
          "name": "",
          "type": "uint256"
        }
      ],
      "name": "offers",
      "outputs": [
        {
          "internalType": "address",
          "name": "offerer",
          "type": "address"
        },
        {
          "internalType": "uint256",
          "name": "offeredTokenId",
          "type": "uint256"
        },
        {
          "internalType": "uint256",
          "name": "requestedTokenId",
          "type": "uint256"
        },
        {
          "internalType": "bool",
          "name": "active",
          "type": "bool"
        },
        {
          "internalType": "uint256",
          "name": "createdAt",
          "type": "uint256"
        }
      ],
      "stateMutability": "view",
      "type": "function"
    },
    {
      "inputs": [
        {
          "internalType": "address",
          "name": "",
          "type": "address"
        }
      ],
      "name": "ownedCount",
      "outputs": [
        {
          "internalType": "uint256",
          "name": "",
          "type": "uint256"
        }
      ],
      "stateMutability": "view",
      "type": "function"
    },
    {
      "inputs": [
        {
          "internalType": "uint256",
          "name": "tokenId",
          "type": "uint256"
        }
      ],
      "name": "ownerOf",
      "outputs": [
        {
          "internalType": "address",
          "name": "",
          "type": "address"
        }
      ],
      "stateMutability": "view",
      "type": "function"
    },
    {
      "inputs": [
        {
          "internalType": "uint256",
          "name": "",
          "type": "uint256"
        }
      ],
      "name": "resources",
      "outputs": [
        {
          "internalType": "string",
          "name": "name",
          "type": "string"
        },
        {
          "internalType": "string",
          "name": "rtype",
          "type": "string"
        },
        {
          "internalType": "uint8",
          "name": "tier",
          "type": "uint8"
        },
        {
          "internalType": "uint256",
          "name": "value",
          "type": "uint256"
        },
        {
          "internalType": "string",
          "name": "ipfsUri",
          "type": "string"
        },
        {
          "internalType": "uint256",
          "name": "createdAt",
          "type": "uint256"
        },
        {
          "internalType": "uint256",
          "name": "lastTransferAt",
          "type": "uint256"
        }
      ],
      "stateMutability": "view",
      "type": "function"
    },
    {
      "inputs": [
        {
          "internalType": "address",
          "name": "from",
          "type": "address"
        },
        {
          "internalType": "address",
          "name": "to",
          "type": "address"
        },
        {
          "internalType": "uint256",
          "name": "tokenId",
          "type": "uint256"
        }
      ],
      "name": "safeTransferFrom",
      "outputs": [],
      "stateMutability": "nonpayable",
      "type": "function"
    },
    {
      "inputs": [
        {
          "internalType": "address",
          "name": "from",
          "type": "address"
        },
        {
          "internalType": "address",
          "name": "to",
          "type": "address"
        },
        {
          "internalType": "uint256",
          "name": "tokenId",
          "type": "uint256"
        },
        {
          "internalType": "bytes",
          "name": "data",
          "type": "bytes"
        }
      ],
      "name": "safeTransferFrom",
      "outputs": [],
      "stateMutability": "nonpayable",
      "type": "function"
    },
    {
      "inputs": [
        {
          "internalType": "address",
          "name": "operator",
          "type": "address"
        },
        {
          "internalType": "bool",
          "name": "approved",
          "type": "bool"
        }
      ],
      "name": "setApprovalForAll",
      "outputs": [],
      "stateMutability": "nonpayable",
      "type": "function"
    },
    {
      "inputs": [
        {
          "internalType": "bytes4",
          "name": "interfaceId",
          "type": "bytes4"
        }
      ],
      "name": "supportsInterface",
      "outputs": [
        {
          "internalType": "bool",
          "name": "",
          "type": "bool"
        }
      ],
      "stateMutability": "view",
      "type": "function"
    },
    {
      "inputs": [],
      "name": "symbol",
      "outputs": [
        {
          "internalType": "string",
          "name": "",
          "type": "string"
        }
      ],
      "stateMutability": "view",
      "type": "function"
    },
    {
      "inputs": [
        {
          "internalType": "uint256",
          "name": "tokenId",
          "type": "uint256"
        }
      ],
      "name": "tokenURI",
      "outputs": [
        {
          "internalType": "string",
          "name": "",
          "type": "string"
        }
      ],
      "stateMutability": "view",
      "type": "function"
    },
    {
      "inputs": [
        {
          "internalType": "address",
          "name": "user",
          "type": "address"
        }
      ],
      "name": "tokensOfOwner",
      "outputs": [
        {
          "internalType": "uint256[]",
          "name": "",
          "type": "uint256[]"
        }
      ],
      "stateMutability": "view",
      "type": "function"
    },
    {
      "inputs": [
        {
          "internalType": "address",
          "name": "from",
          "type": "address"
        },
        {
          "internalType": "address",
          "name": "to",
          "type": "address"
        },
        {
          "internalType": "uint256",
          "name": "tokenId",
          "type": "uint256"
        }
      ],
      "name": "transferFrom",
      "outputs": [],
      "stateMutability": "nonpayable",
      "type": "function"
    }
  ],
  "bytecode": "0x608060405260016008556001600955348015610019575f5ffd5b506040518060400160405280600c81526020017f5265736f757263655377617000000000000000000000000000000000000000008152506040518060400160405280600581526020017f5253574150000000000000000000000000000000000000000000000000000000815250815f908161009491906102f1565b5080600190816100a491906102f1565b50505060016007819055506103c0565b5f81519050919050565b7f4e487b71000000000000000000000000000000000000000000000000000000005f52604160045260245ffd5b7f4e487b71000000000000000000000000000000000000000000000000000000005f52602260045260245ffd5b5f600282049050600182168061012f57607f821691505b602082108103610142576101416100eb565b5b50919050565b5f819050815f5260205f209050919050565b5f6020601f8301049050919050565b5f82821b905092915050565b5f600883026101a47fffffffffffffffffffffffffffffffffffffffffffffffffffffffffffffffff82610169565b6101ae8683610169565b95508019841693508086168417925050509392505050565b5f819050919050565b5f819050919050565b5f6101f26101ed6101e8846101c6565b6101cf565b6101c6565b9050919050565b5f819050919050565b61020b836101d8565b61021f610217826101f9565b848454610175565b825550505050565b5f5f905090565b610236610227565b610241818484610202565b505050565b5b81811015610264576102595f8261022e565b600181019050610247565b5050565b601f8211156102a95761027a81610148565b6102838461015a565b81016020851015610292578190505b6102a661029e8561015a565b830182610246565b50505b505050565b5f82821c905092915050565b5f6102c95f19846008026102ae565b1980831691505092915050565b5f6102e183836102ba565b9150826002028217905092915050565b6102fa826100b4565b67ffffffffffffffff811115610313576103126100be565b5b61031d8254610118565b610328828285610268565b5f60209050601f831160018114610359575f8415610347578287015190505b61035185826102d6565b8655506103b8565b601f19841661036786610148565b5f5b8281101561038e57848901518255600182019150602085019450602081019050610369565b868310156103ab57848901516103a7601f8916826102ba565b8355505b6001600288020188555050505b505050505050565b615086806103cd5f395ff3fe608060405234801561000f575f5ffd5b50600436106101a7575f3560e01c806370a08231116100f7578063a87b500411610095578063c815729d1161006f578063c815729d14610535578063c87b56dd14610551578063e985e9c514610581578063ef706adf146105b1576101a7565b8063a87b5004146104b9578063b2087f2d146104e9578063b88d4fde14610519576101a7565b806395d89b41116100d157806395d89b41146104315780639bc289f11461044f578063a22cb4651461047f578063a2724a4d1461049b576101a7565b806370a082311461039d5780638462151c146103cd5780638a72ea6a146103fd576101a7565b8063244d6daa1161016457806346b4f7021161013e57806346b4f70214610301578063485d3834146103315780635f5d06551461034f5780636352211e1461036d576101a7565b8063244d6daa146102915780633562afd6146102c757806342842e0e146102e5576101a7565b806301ffc9a7146101ab57806306fdde03146101db578063081812fc146101f9578063095ea7b3146102295780631afed8751461024557806323b872dd14610275575b5f5ffd5b6101c560048036038101906101c09190613d28565b6105cd565b6040516101d29190613d6d565b60405180910390f35b6101e361062d565b6040516101f09190613df6565b60405180910390f35b610213600480360381019061020e9190613e49565b6106bc565b6040516102209190613eb3565b60405180910390f35b610243600480360381019061023e9190613ef6565b6106d7565b005b61025f600480360381019061025a9190613f34565b6106ed565b60405161026c9190613f81565b60405180910390f35b61028f600480360381019061028a9190613f9a565b610bd0565b005b6102ab60048036038101906102a69190613e49565b610ccf565b6040516102be9796959493929190614005565b60405180910390f35b6102cf610eab565b6040516102dc9190613f81565b60405180910390f35b6102ff60048036038101906102fa9190613f9a565b610eb0565b005b61031b60048036038101906103169190614087565b610ecf565b6040516103289190613f81565b60405180910390f35b610339610ee4565b6040516103469190613f81565b60405180910390f35b610357610eea565b6040516103649190613f81565b60405180910390f35b61038760048036038101906103829190613e49565b610ef0565b6040516103949190613eb3565b60405180910390f35b6103b760048036038101906103b29190614087565b610f01565b6040516103c49190613f81565b60405180910390f35b6103e760048036038101906103e29190614087565b610fb7565b6040516103f49190614169565b60405180910390f35b61041760048036038101906104129190613e49565b61136b565b604051610428959493929190614189565b60405180910390f35b6104396113c8565b6040516104469190613df6565b60405180910390f35b61046960048036038101906104649190614087565b611458565b6040516104769190613f81565b60405180910390f35b61049960048036038101906104949190614204565b61146d565b005b6104a3611483565b6040516104b09190613f81565b60405180910390f35b6104d360048036038101906104ce9190614398565b611489565b6040516104e09190613f81565b60405180910390f35b61050360048036038101906104fe9190614087565b611a3d565b6040516105109190613f81565b60405180910390f35b610533600480360381019061052e9190614501565b611a52565b005b61054f600480360381019061054a9190613e49565b611a77565b005b61056b60048036038101906105669190613e49565b6122c8565b6040516105789190613df6565b60405180910390f35b61059b60048036038101906105969190614581565b6123d3565b6040516105a89190613d6d565b60405180910390f35b6105cb60048036038101906105c69190613e49565b612461565b005b5f634906490660e01b7bffffffffffffffffffffffffffffffffffffffffffffffffffffffff1916827bffffffffffffffffffffffffffffffffffffffffffffffffffffffff19161480610626575061062582612618565b5b9050919050565b60605f805461063b906145ec565b80601f0160208091040260200160405190810160405280929190818152602001828054610667906145ec565b80156106b25780601f10610689576101008083540402835291602001916106b2565b820191905f5260205f20905b81548152906001019060200180831161069557829003601f168201915b5050505050905090565b5f6106c6826126f9565b506106d08261277f565b9050919050565b6106e982826106e46127b8565b6127bf565b5050565b5f336107187fef43b84b33e3f8234d5faccd3231c164facd4496ed5b174fd3e2d39a767b18d06127d1565b600d5f8273ffffffffffffffffffffffffffffffffffffffff1673ffffffffffffffffffffffffffffffffffffffff1681526020019081526020015f2054421015610798576040517f08c379a000000000000000000000000000000000000000000000000000000000815260040161078f90614666565b60405180910390fd5b6107c17fd35912d1fd0c660bac6afa0a19a755288584d06aec4caae73ef1c7c03cba45806127d1565b336107eb7f69ac389a81bfa3cbe47892e2b1337df2d58ac86e2ead3e2642d418833bdd2d406127d1565b61012c600c5f8373ffffffffffffffffffffffffffffffffffffffff1673ffffffffffffffffffffffffffffffffffffffff1681526020019081526020015f205461083691906146b1565b421015610878576040517f08c379a000000000000000000000000000000000000000000000000000000000815260040161086f9061472e565b60405180910390fd5b6108a17f74ab3cc50e494f771e966346c3ba1b1dfdc0dcfada546a51dd6287cfd06b10616127d1565b6108ca7f428ef527ecd183d6c90dde655f3aac5d47732505482286022f2826002b26c3216127d1565b3373ffffffffffffffffffffffffffffffffffffffff166108ea86610ef0565b73ffffffffffffffffffffffffffffffffffffffff1614610940576040517f08c379a000000000000000000000000000000000000000000000000000000000815260040161093790614796565b60405180910390fd5b6109697f5bef89881db93df7d86b9ee4944afad49743b1da942bbc6ab4b9cc56b94ca2e16127d1565b3073ffffffffffffffffffffffffffffffffffffffff16610989866106bc565b73ffffffffffffffffffffffffffffffffffffffff1614806109b157506109b033306123d3565b5b6109f0576040517f08c379a00000000000000000000000000000000000000000000000000000000081526004016109e7906147fe565b60405180910390fd5b610a197f10ee0edaf22db2be8a5ffdcb80ddf3704ad80d4260932e2e9684d470c03b2b2a6127d1565b5f60095f815480929190610a2c9061481c565b919050559050610a5b7f799bca7c06b343ecc40d0df3b9d34d2d161754616da4594e5df87f62b90f69b26127d1565b6040518060a001604052803373ffffffffffffffffffffffffffffffffffffffff16815260200187815260200186815260200160011515815260200142815250600e5f8381526020019081526020015f205f820151815f015f6101000a81548173ffffffffffffffffffffffffffffffffffffffff021916908373ffffffffffffffffffffffffffffffffffffffff16021790555060208201518160010155604082015181600201556060820151816003015f6101000a81548160ff02191690831515021790555060808201518160040155905050610b597f48bc02be361ed541e18235ca40ce8a7d237ab2fc9b8b08cb43b6cce99a7616c66127d1565b42600c5f3373ffffffffffffffffffffffffffffffffffffffff1673ffffffffffffffffffffffffffffffffffffffff1681526020019081526020015f2081905550610bc47f847f20d1ba8ab0a71f3abc7dd2d91f90754d3fa2d02b6d6d31a01214e014209f6127d1565b80935050505092915050565b5f73ffffffffffffffffffffffffffffffffffffffff168273ffffffffffffffffffffffffffffffffffffffff1603610c40575f6040517f64a0ae92000000000000000000000000000000000000000000000000000000008152600401610c379190613eb3565b60405180910390fd5b5f610c538383610c4e6127b8565b6127eb565b90508373ffffffffffffffffffffffffffffffffffffffff168173ffffffffffffffffffffffffffffffffffffffff1614610cc9578382826040517f64283d7b000000000000000000000000000000000000000000000000000000008152600401610cc093929190614863565b60405180910390fd5b50505050565b600a602052805f5260405f205f91509050805f018054610cee906145ec565b80601f0160208091040260200160405190810160405280929190818152602001828054610d1a906145ec565b8015610d655780601f10610d3c57610100808354040283529160200191610d65565b820191905f5260205f20905b815481529060010190602001808311610d4857829003601f168201915b505050505090806001018054610d7a906145ec565b80601f0160208091040260200160405190810160405280929190818152602001828054610da6906145ec565b8015610df15780601f10610dc857610100808354040283529160200191610df1565b820191905f5260205f20905b815481529060010190602001808311610dd457829003601f168201915b505050505090806002015f9054906101000a900460ff1690806003015490806004018054610e1e906145ec565b80601f0160208091040260200160405190810160405280929190818152602001828054610e4a906145ec565b8015610e955780601f10610e6c57610100808354040283529160200191610e95565b820191905f5260205f20905b815481529060010190602001808311610e7857829003601f168201915b5050505050908060060154908060070154905087565b600481565b610eca83838360405180602001604052805f815250611a52565b505050565b600c602052805f5260405f205f915090505481565b61025881565b60095481565b5f610efa826126f9565b9050919050565b5f5f73ffffffffffffffffffffffffffffffffffffffff168273ffffffffffffffffffffffffffffffffffffffff1603610f72575f6040517f89c62b64000000000000000000000000000000000000000000000000000000008152600401610f699190613eb3565b60405180910390fd5b60035f8373ffffffffffffffffffffffffffffffffffffffff1673ffffffffffffffffffffffffffffffffffffffff1681526020019081526020015f20549050919050565b6060610fe27fff361864e072b9e7ff1e26a133db05634db3083638b41bc2092198b33d3f4c2a6127d1565b5f610fec83610f01565b90506110177f95354d127f937cf87e685f80b990756a868c1c248c9c3ed7cdde34cdae704e6d6127d1565b5f8167ffffffffffffffff8111156110325761103161424a565b5b6040519080825280602002602001820160405280156110605781602001602082028036833780820191505090505b50905061108c7f2736966af38d4280a7259b93c3b96642c72c41f3a127ab50a83cdc78cf2bc81e6127d1565b5f5f90506110b97f36fb98266ac0e00029136a051b870c80903b2fbff048e178b98da1b613e859fc6127d1565b5f60085490506110e87fca6d4640d5ffa5b4e0b3ade9b04ffa8bb4cf40a9215098aacaf79f40472682d36127d1565b5f600190505b818110156113095761111f7f8607aa445f1f02ef21360f0afb15669ae3d227e742b4a74bb869efde0d3177106127d1565b6111487f878fbe8922b336507a0bbdbc82d8ac432b7cd69642ad4fc284dcbeeb5c9296e76127d1565b3073ffffffffffffffffffffffffffffffffffffffff16636352211e826040518263ffffffff1660e01b81526004016111819190613f81565b602060405180830381865afa9250505080156111bb57506040513d601f19601f820116820180604052508101906111b891906148ac565b60015b156112fc576111e97f5a25d9c323ed08ffda560da708868968d57e920ae578fb8f484535da12e191066127d1565b8773ffffffffffffffffffffffffffffffffffffffff168173ffffffffffffffffffffffffffffffffffffffff16036112fa576112457f12b0ccb03f3967b9ddf229136da0b8eeabf29d52d3715ff4b3e7c5d907029b266127d1565b61126e7f721960a9eb02ed7b6253a48c15b6a4e3f2ffabebc910b7c24f0b42975d8470286127d1565b8185858061127b9061481c565b96508151811061128e5761128d6148d7565b5b6020026020010181815250506112c37fe3dfc0575080712911ffa8c46b23f8d58041e4c7b05fe49e360ad972cac808206127d1565b8584036112f9576112f37f2280273c27641512889b7bfa335a1016d1379c3a4fe9fe115d96e8fe97a578176127d1565b50611309565b5b505b80806001019150506110ee565b506113337f4885a7a1ef5fb057ae168492cad0c9ff0a35d266bad5e801cbb6f6e9a0ff83706127d1565b81835261135f7fa002ff30fed5c24e66021be406aa4f8de239dcefc3c7c8c295befd468c1054c46127d1565b82945050505050919050565b600e602052805f5260405f205f91509050805f015f9054906101000a900473ffffffffffffffffffffffffffffffffffffffff1690806001015490806002015490806003015f9054906101000a900460ff16908060040154905085565b6060600180546113d7906145ec565b80601f0160208091040260200160405190810160405280929190818152602001828054611403906145ec565b801561144e5780601f106114255761010080835404028352916020019161144e565b820191905f5260205f20905b81548152906001019060200180831161143157829003601f168201915b5050505050905090565b600d602052805f5260405f205f915090505481565b61147f6114786127b8565b8383612f09565b5050565b61012c81565b5f336114b47fef43b84b33e3f8234d5faccd3231c164facd4496ed5b174fd3e2d39a767b18d06127d1565b600d5f8273ffffffffffffffffffffffffffffffffffffffff1673ffffffffffffffffffffffffffffffffffffffff1681526020019081526020015f2054421015611534576040517f08c379a000000000000000000000000000000000000000000000000000000000815260040161152b90614666565b60405180910390fd5b61155d7fd35912d1fd0c660bac6afa0a19a755288584d06aec4caae73ef1c7c03cba45806127d1565b336115877f69ac389a81bfa3cbe47892e2b1337df2d58ac86e2ead3e2642d418833bdd2d406127d1565b61012c600c5f8373ffffffffffffffffffffffffffffffffffffffff1673ffffffffffffffffffffffffffffffffffffffff1681526020019081526020015f20546115d291906146b1565b421015611614576040517f08c379a000000000000000000000000000000000000000000000000000000000815260040161160b9061472e565b60405180910390fd5b61163d7f74ab3cc50e494f771e966346c3ba1b1dfdc0dcfada546a51dd6287cfd06b10616127d1565b6116667fe43cace5e41c71724cd215717dcdfb0b872ede1cc12004bb155938db19e52c156127d1565b600461167133610f01565b106116b1576040517f08c379a00000000000000000000000000000000000000000000000000000000081526004016116a89061494e565b60405180910390fd5b6116da7fd560e1e63a78fae5c5ec771eaee2f113827095df9352cdf66edd2c359653605e6127d1565b5f60085f8154809291906116ed9061481c565b91905055905061171c7f846ee9cf2cee8ac70bdf1311b99e7c2a5b8f95c0555beb41aa3ca7249aa0143a6127d1565b6117263382613072565b61174f7f1b8f0c31116274c5b6b8729081e6277100c042e05ccd62510d19fabd64c8ec1e6127d1565b611759818661308f565b6117827fdc5f7d8873874f91b20eb0b6daa0b8e1efd52d8f5755d81bc8183ea950e805b26127d1565b5f600a5f8381526020019081526020015f2090506117bf7f51af4e71d983ad5e141b6ad8a7e1682465fdb6c3597f191a9843243129cc08a86127d1565b89815f0190816117cf9190614b0c565b506117f97fc6e9f5dd8afa6820dd4d1714b73bf9188e681989e6e5e8e1f2c1eafc6685f5506127d1565b8881600101908161180a9190614b0c565b506118347f1b14d551c5d42eef9ae60fa89b7e4764c06b68c6eaebb79f6e178204011f066b6127d1565b87816002015f6101000a81548160ff021916908360ff1602179055506118797f1d532221b58b61962010d6543268f188f047ae7eff5152cf9f60e34b863f26fa6127d1565b8681600301819055506118ab7fd757c34edbe6f044de334f53bc1c24b52a1438f2a144768d93ae1d94f24755ef6127d1565b858160040190816118bc9190614b0c565b506118e67fe3f602a5393b093cc86de27598b439bea7bb68bd172a82fb04a2b629ac9c3a0d6127d1565b4281600601819055506119187faa847ec3d8e36757b5330f26caf248fe3b1949eaf30551472f817be7ece9ec036127d1565b42816007018190555061194a7fe7937a08c843c408731be79175c26d33b47d94d06dcaef43bee16f4f010b3f8f6127d1565b42600c5f3373ffffffffffffffffffffffffffffffffffffffff1673ffffffffffffffffffffffffffffffffffffffff1681526020019081526020015f20819055506119b57fe5c26af4fcadf99987e3835d51deb3d5261098c3a64b31995af14704c323f90e6127d1565b610258426119c391906146b1565b600d5f3373ffffffffffffffffffffffffffffffffffffffff1673ffffffffffffffffffffffffffffffffffffffff1681526020019081526020015f2081905550611a2d7f431fb3b05d93260ed863a122ffa08c99fe1ae09c10e7b99dacd58c0034d8bb126127d1565b8194505050505095945050505050565b600b602052805f5260405f205f915090505481565b611a5d848484610bd0565b611a71611a686127b8565b858585856130e9565b50505050565b611a7f613295565b33611aa97fef43b84b33e3f8234d5faccd3231c164facd4496ed5b174fd3e2d39a767b18d06127d1565b600d5f8273ffffffffffffffffffffffffffffffffffffffff1673ffffffffffffffffffffffffffffffffffffffff1681526020019081526020015f2054421015611b29576040517f08c379a0000000000000000000000000000000000000000000000000000000008152600401611b2090614666565b60405180910390fd5b611b527fd35912d1fd0c660bac6afa0a19a755288584d06aec4caae73ef1c7c03cba45806127d1565b33611b7c7f69ac389a81bfa3cbe47892e2b1337df2d58ac86e2ead3e2642d418833bdd2d406127d1565b61012c600c5f8373ffffffffffffffffffffffffffffffffffffffff1673ffffffffffffffffffffffffffffffffffffffff1681526020019081526020015f2054611bc791906146b1565b421015611c09576040517f08c379a0000000000000000000000000000000000000000000000000000000008152600401611c009061472e565b60405180910390fd5b611c327f74ab3cc50e494f771e966346c3ba1b1dfdc0dcfada546a51dd6287cfd06b10616127d1565b611c5b7f1eee4de822e2cc5d8d074d044aafa7bb11bb7f963d9b0af05a747c217552ce436127d1565b5f600e5f8581526020019081526020015f209050611c987f7ab886f6febf7a1ac614c51a24148fc3f2e74e18cd461530a44eadcde81f45f76127d1565b806003015f9054906101000a900460ff16611ce8576040517f08c379a0000000000000000000000000000000000000000000000000000000008152600401611cdf90614c25565b60405180910390fd5b611d117fdc8cf3f727b9264f1e3434dba93969f0ff0b37a2291b9891bcd06d79559b20376127d1565b5f815f015f9054906101000a900473ffffffffffffffffffffffffffffffffffffffff169050611d607f7bdf60840ce1c44ccc6db4aaee9abd590f6f84f77cfcc1072707e76c69874fb66127d1565b5f82600101549050611d917fb81e55c1c04e5fffe1037f6515e0bc7c1576ee709487ccc970f8ca0a7d2d43e86127d1565b5f83600201549050611dc27fa9600c5cc1b6e61cad210bbdddc4f32ef18f6bdf10e4de9f84a697a0f7d047fe6127d1565b8273ffffffffffffffffffffffffffffffffffffffff16611de283610ef0565b73ffffffffffffffffffffffffffffffffffffffff1614611e38576040517f08c379a0000000000000000000000000000000000000000000000000000000008152600401611e2f90614c8d565b60405180910390fd5b611e617f8e2d8889ba17acb9e89103227d2682bf84f6177a69d475cb945f1686c4b9c15d6127d1565b3373ffffffffffffffffffffffffffffffffffffffff16611e8182610ef0565b73ffffffffffffffffffffffffffffffffffffffff1614611ed7576040517f08c379a0000000000000000000000000000000000000000000000000000000008152600401611ece90614d1b565b60405180910390fd5b611f007f76fdad56cea5fee9a56d81a325ece001634750cb33d8ebf0c1fc6ff59d086db06127d1565b3073ffffffffffffffffffffffffffffffffffffffff16611f20826106bc565b73ffffffffffffffffffffffffffffffffffffffff161480611f485750611f4733306123d3565b5b611f87576040517f08c379a0000000000000000000000000000000000000000000000000000000008152600401611f7e90614da9565b60405180910390fd5b611fb07fc3b9dfc47b37979d59ca2364eef40f733d30ff5631f049c3f0a7913f9c6d46816127d1565b5f846003015f6101000a81548160ff021916908315150217905550611ff47f500b64c1319949e72dedea913b3e8344a5c0582be4b34ded5aec8958250cdbb26127d1565b3073ffffffffffffffffffffffffffffffffffffffff166342842e0e8433856040518463ffffffff1660e01b815260040161203193929190614dc7565b5f604051808303815f87803b158015612048575f5ffd5b505af115801561205a573d5f5f3e3d5ffd5b505050506120877f01c95dacaf20a54d4f326315a40a67f3f250cb0ab1689a2213d980b2d7fa6c566127d1565b3073ffffffffffffffffffffffffffffffffffffffff166342842e0e3385846040518463ffffffff1660e01b81526004016120c493929190614dc7565b5f604051808303815f87803b1580156120db575f5ffd5b505af11580156120ed573d5f5f3e3d5ffd5b5050505061211a7fc2e352ce861e9e6b699bfd318094fe1318659268b75abbe099787d617e7ebaff6127d1565b42600c5f3373ffffffffffffffffffffffffffffffffffffffff1673ffffffffffffffffffffffffffffffffffffffff1681526020019081526020015f20819055506121857fda607519f0aecad3be0f3f0883ef10327850032e31710d6da330beec26136fb26127d1565b6102584261219391906146b1565b600d5f3373ffffffffffffffffffffffffffffffffffffffff1673ffffffffffffffffffffffffffffffffffffffff1681526020019081526020015f20819055506121fd7f4c34e4d4c11bce06c03d15ef89882bc75655f0b4c24c53ede442d5f74edccaab6127d1565b42600c5f8573ffffffffffffffffffffffffffffffffffffffff1673ffffffffffffffffffffffffffffffffffffffff1681526020019081526020015f20819055506122687f14eb99b538d60aa62a1c5d1b1cb1a139e7553b9fec2ad0bb3c325b02f670f43e6127d1565b6102584261227691906146b1565b600d5f8573ffffffffffffffffffffffffffffffffffffffff1673ffffffffffffffffffffffffffffffffffffffff1681526020019081526020015f20819055505050505050506122c56132db565b50565b60606122d3826126f9565b505f60065f8481526020019081526020015f2080546122f1906145ec565b80601f016020809104026020016040519081016040528092919081815260200182805461231d906145ec565b80156123685780601f1061233f57610100808354040283529160200191612368565b820191905f5260205f20905b81548152906001019060200180831161234b57829003601f168201915b505050505090505f6123786132e5565b90505f81510361238c5781925050506123ce565b5f825111156123c05780826040516020016123a8929190614e36565b604051602081830303815290604052925050506123ce565b6123c9846132fb565b925050505b919050565b5f60055f8473ffffffffffffffffffffffffffffffffffffffff1673ffffffffffffffffffffffffffffffffffffffff1681526020019081526020015f205f8373ffffffffffffffffffffffffffffffffffffffff1673ffffffffffffffffffffffffffffffffffffffff1681526020019081526020015f205f9054906101000a900460ff16905092915050565b61248a7f5bf2b79d7a3a7f32c60989c962792830d7327d965fbde05c2f5c1b2372a776496127d1565b5f600e5f8381526020019081526020015f2090506124c77fa57be094cfd27643864a68f9673a93b63f3edb6ba325c61c419c6ccc803176e36127d1565b806003015f9054906101000a900460ff16612517576040517f08c379a000000000000000000000000000000000000000000000000000000000815260040161250e90614c25565b60405180910390fd5b6125407fd25c17f7ac1b3750d41c084aaf8a4fce6f57b83c7297e2c3e350b97ee2f9654c6127d1565b3373ffffffffffffffffffffffffffffffffffffffff16815f015f9054906101000a900473ffffffffffffffffffffffffffffffffffffffff1673ffffffffffffffffffffffffffffffffffffffff16146125d0576040517f08c379a00000000000000000000000000000000000000000000000000000000081526004016125c790614ea3565b60405180910390fd5b6125f97f407bdbc63f489c249c7d35982552eb4dcc27e4d6e890d77e88c16ef26e01a3476127d1565b5f816003015f6101000a81548160ff0219169083151502179055505050565b5f7f80ac58cd000000000000000000000000000000000000000000000000000000007bffffffffffffffffffffffffffffffffffffffffffffffffffffffff1916827bffffffffffffffffffffffffffffffffffffffffffffffffffffffff191614806126e257507f5b5e139f000000000000000000000000000000000000000000000000000000007bffffffffffffffffffffffffffffffffffffffffffffffffffffffff1916827bffffffffffffffffffffffffffffffffffffffffffffffffffffffff1916145b806126f257506126f182613361565b5b9050919050565b5f5f612704836133ca565b90505f73ffffffffffffffffffffffffffffffffffffffff168173ffffffffffffffffffffffffffffffffffffffff160361277657826040517f7e27328900000000000000000000000000000000000000000000000000000000815260040161276d9190613f81565b60405180910390fd5b80915050919050565b5f60045f8381526020019081526020015f205f9054906101000a900473ffffffffffffffffffffffffffffffffffffffff169050919050565b5f33905090565b6127cc8383836001613403565b505050565b6127e8816127e06135c26135ee565b63ffffffff16565b50565b5f6128157f30c8e3cb003deb9ceaf22209753cca5d6ea7f2ce3846eff40d106aa16d2cfa736127d1565b6128208484846135f9565b905061284b7f6979773e7f64e9f0c567a960a1e568bed189f5ffe8a3751ea2e667ef648657456127d1565b5f73ffffffffffffffffffffffffffffffffffffffff168173ffffffffffffffffffffffffffffffffffffffff161480156128b257505f73ffffffffffffffffffffffffffffffffffffffff168473ffffffffffffffffffffffffffffffffffffffff1614155b15612962576128e07ff04404f1eedc845aa5c02e21376e5dbf9c3465322da4ddaa78a1a2d855f9d45d6127d1565b6129097fcd6fea0362f10b0024b31438f647ae17bcf53b32f58596dd029a153b08064df16127d1565b6001600b5f8673ffffffffffffffffffffffffffffffffffffffff1673ffffffffffffffffffffffffffffffffffffffff1681526020019081526020015f205f82825461295691906146b1565b92505081905550612d3c565b61298b7f56b2f2c7319a4bc6113e2d1c94dc9e7bd7da5c5d8b684fa38c5f010023f8e6966127d1565b5f73ffffffffffffffffffffffffffffffffffffffff168173ffffffffffffffffffffffffffffffffffffffff16141580156129f257505f73ffffffffffffffffffffffffffffffffffffffff168473ffffffffffffffffffffffffffffffffffffffff16145b15612b1157612a207f3633296cca00ec675a01a563bb440aa3b37e806025335816f358ae55660d7cc06127d1565b612a497f55b22a823a5719f0a408c2d5852ef7a11a98ad04ef8e678df9ba3d09c7fd516f6127d1565b5f600b5f8373ffffffffffffffffffffffffffffffffffffffff1673ffffffffffffffffffffffffffffffffffffffff1681526020019081526020015f20541115612b0c57612ab77fc1ea6fe7764aae1fcc024e1166b78b97a139d2851bfbe5b9b62c218f8ee6dfea6127d1565b6001600b5f8373ffffffffffffffffffffffffffffffffffffffff1673ffffffffffffffffffffffffffffffffffffffff1681526020019081526020015f205f828254612b049190614ec1565b925050819055505b612d3b565b612b3a7f9882a203bd8c9d3ca47b234c24d5e9232e8d06f614d2a724b4d1128ed99ffd386127d1565b5f73ffffffffffffffffffffffffffffffffffffffff168173ffffffffffffffffffffffffffffffffffffffff1614158015612ba257505f73ffffffffffffffffffffffffffffffffffffffff168473ffffffffffffffffffffffffffffffffffffffff1614155b15612d3a57612bd07f2fceac3bf0dc5f290e8b223847a7b01a786d9805e3a48fbd8f1507c6c3d1acf26127d1565b612bf97fe6b991a2b429d22b520dae98dd489e5bc766f9132f15bf5fefa37fdfad6b33d26127d1565b5f600b5f8373ffffffffffffffffffffffffffffffffffffffff1673ffffffffffffffffffffffffffffffffffffffff1681526020019081526020015f20541115612cbc57612c677fd2108b9ca2a6ebbe43d3cdd2bf13c6040407e08c98a64ed68c470497cd05b0be6127d1565b6001600b5f8373ffffffffffffffffffffffffffffffffffffffff1673ffffffffffffffffffffffffffffffffffffffff1681526020019081526020015f205f828254612cb49190614ec1565b925050819055505b612ce57faac7796c208b6dff5802058323e914111efd5c540c5c981de521f0da36cfa57f6127d1565b6001600b5f8673ffffffffffffffffffffffffffffffffffffffff1673ffffffffffffffffffffffffffffffffffffffff1681526020019081526020015f205f828254612d3291906146b1565b925050819055505b5b5b612d657fd916c6fb0d1f9580f9759973b9c46fa9cccc109801556b2865cf3eb71015aae16127d1565b5f73ffffffffffffffffffffffffffffffffffffffff168173ffffffffffffffffffffffffffffffffffffffff1614158015612dcd57505f73ffffffffffffffffffffffffffffffffffffffff168473ffffffffffffffffffffffffffffffffffffffff1614155b15612ed957612dfb7f963f9e394ba945328e27912c891ec6ad3cbf44992cf41e98cc7c4e86871d2dac6127d1565b612e247f267c13db08f5e39b528c15818b8a20f7f021438a24bcd670e63412250231360a6127d1565b600a5f8481526020019081526020015f2060050181908060018154018082558091505060019003905f5260205f20015f9091909190916101000a81548173ffffffffffffffffffffffffffffffffffffffff021916908373ffffffffffffffffffffffffffffffffffffffff160217905550612ebf7f8505993a85a55b79c43d71fed4e86797d86a6ef5a1d8237ccb2d1dc523b5b6816127d1565b42600a5f8581526020019081526020015f20600701819055505b612f027f2c599f0d115f6e36665afa0f8412a49ade0c2379256b526d6e093b772bd7557a6127d1565b9392505050565b5f73ffffffffffffffffffffffffffffffffffffffff168273ffffffffffffffffffffffffffffffffffffffff1603612f7957816040517f5b08ba18000000000000000000000000000000000000000000000000000000008152600401612f709190613eb3565b60405180910390fd5b8060055f8573ffffffffffffffffffffffffffffffffffffffff1673ffffffffffffffffffffffffffffffffffffffff1681526020019081526020015f205f8473ffffffffffffffffffffffffffffffffffffffff1673ffffffffffffffffffffffffffffffffffffffff1681526020019081526020015f205f6101000a81548160ff0219169083151502179055508173ffffffffffffffffffffffffffffffffffffffff168373ffffffffffffffffffffffffffffffffffffffff167f17307eab39ab6107e8899845ad3d59bd9653f200f220920489ca2b5937696c31836040516130659190613d6d565b60405180910390a3505050565b61308b828260405180602001604052805f815250613804565b5050565b8060065f8481526020019081526020015f2090816130ad9190614b0c565b507ff8e1a15aba9398e019f0b49df1a4fde98ee17ae345cb5f6b5e2c27f5033e8ce7826040516130dd9190613f81565b60405180910390a15050565b5f8373ffffffffffffffffffffffffffffffffffffffff163b111561328e578273ffffffffffffffffffffffffffffffffffffffff1663150b7a02868685856040518563ffffffff1660e01b81526004016131479493929190614f46565b6020604051808303815f875af192505050801561318257506040513d601f19601f8201168201806040525081019061317f9190614fa4565b60015b613203573d805f81146131b0576040519150601f19603f3d011682016040523d82523d5f602084013e6131b5565b606091505b505f8151036131fb57836040517f64a0ae920000000000000000000000000000000000000000000000000000000081526004016131f29190613eb3565b60405180910390fd5b805160208201fd5b63150b7a0260e01b7bffffffffffffffffffffffffffffffffffffffffffffffffffffffff1916817bffffffffffffffffffffffffffffffffffffffffffffffffffffffff19161461328c57836040517f64a0ae920000000000000000000000000000000000000000000000000000000081526004016132839190613eb3565b60405180910390fd5b505b5050505050565b6002600754036132d1576040517f3ee5aeb500000000000000000000000000000000000000000000000000000000815260040160405180910390fd5b6002600781905550565b6001600781905550565b606060405180602001604052805f815250905090565b6060613306826126f9565b505f6133106132e5565b90505f81511161332e5760405180602001604052805f815250613359565b8061333884613827565b604051602001613349929190614e36565b6040516020818303038152906040525b915050919050565b5f7f01ffc9a7000000000000000000000000000000000000000000000000000000007bffffffffffffffffffffffffffffffffffffffffffffffffffffffff1916827bffffffffffffffffffffffffffffffffffffffffffffffffffffffff1916149050919050565b5f60025f8381526020019081526020015f205f9054906101000a900473ffffffffffffffffffffffffffffffffffffffff169050919050565b808061343b57505f73ffffffffffffffffffffffffffffffffffffffff168273ffffffffffffffffffffffffffffffffffffffff1614155b1561356d575f61344a846126f9565b90505f73ffffffffffffffffffffffffffffffffffffffff168373ffffffffffffffffffffffffffffffffffffffff16141580156134b457508273ffffffffffffffffffffffffffffffffffffffff168173ffffffffffffffffffffffffffffffffffffffff1614155b80156134c757506134c581846123d3565b155b1561350957826040517fa9fbf51f0000000000000000000000000000000000000000000000000000000081526004016135009190613eb3565b60405180910390fd5b811561356b57838573ffffffffffffffffffffffffffffffffffffffff168273ffffffffffffffffffffffffffffffffffffffff167f8c5be1e5ebec7d5bd14f71427d1e84f3dd0314c0f7b2291e5b200ac8c7c3b92560405160405180910390a45b505b8360045f8581526020019081526020015f205f6101000a81548173ffffffffffffffffffffffffffffffffffffffff021916908373ffffffffffffffffffffffffffffffffffffffff16021790555050505050565b5f73c0bec0bec0bec0bec0bec0bec0bec0bec0bec0be90506040518281525f5f602083855afa50505050565b613cb8819050919050565b5f5f613604846133ca565b90505f73ffffffffffffffffffffffffffffffffffffffff168373ffffffffffffffffffffffffffffffffffffffff1614613645576136448184866138f1565b5b5f73ffffffffffffffffffffffffffffffffffffffff168173ffffffffffffffffffffffffffffffffffffffff16146136d0576136845f855f5f613403565b600160035f8373ffffffffffffffffffffffffffffffffffffffff1673ffffffffffffffffffffffffffffffffffffffff1681526020019081526020015f205f82825403925050819055505b5f73ffffffffffffffffffffffffffffffffffffffff168573ffffffffffffffffffffffffffffffffffffffff161461374f57600160035f8773ffffffffffffffffffffffffffffffffffffffff1673ffffffffffffffffffffffffffffffffffffffff1681526020019081526020015f205f82825401925050819055505b8460025f8681526020019081526020015f205f6101000a81548173ffffffffffffffffffffffffffffffffffffffff021916908373ffffffffffffffffffffffffffffffffffffffff160217905550838573ffffffffffffffffffffffffffffffffffffffff168273ffffffffffffffffffffffffffffffffffffffff167fddf252ad1be2c89b69c2b068fc378daa952ba7f163c4a11628f55a4df523b3ef60405160405180910390a4809150509392505050565b61380e83836139b4565b6138226138196127b8565b5f8585856130e9565b505050565b60605f600161383584613aa7565b0190505f8167ffffffffffffffff8111156138535761385261424a565b5b6040519080825280601f01601f1916602001820160405280156138855781602001600182028036833780820191505090505b5090505f82602083010190505b6001156138e6578080600190039150507f3031323334353637383961626364656600000000000000000000000000000000600a86061a8153600a85816138db576138da614fcf565b5b0494505f8503613892575b819350505050919050565b6138fc838383613bf8565b6139af575f73ffffffffffffffffffffffffffffffffffffffff168373ffffffffffffffffffffffffffffffffffffffff160361397057806040517f7e2732890000000000000000000000000000000000000000000000000000000081526004016139679190613f81565b60405180910390fd5b81816040517f177e802f0000000000000000000000000000000000000000000000000000000081526004016139a6929190614ffc565b60405180910390fd5b505050565b5f73ffffffffffffffffffffffffffffffffffffffff168273ffffffffffffffffffffffffffffffffffffffff1603613a24575f6040517f64a0ae92000000000000000000000000000000000000000000000000000000008152600401613a1b9190613eb3565b60405180910390fd5b5f613a3083835f6127eb565b90505f73ffffffffffffffffffffffffffffffffffffffff168173ffffffffffffffffffffffffffffffffffffffff1614613aa2575f6040517f73c6ac6e000000000000000000000000000000000000000000000000000000008152600401613a999190613eb3565b60405180910390fd5b505050565b5f5f5f90507a184f03e93ff9f4daa797ed6e38ed64bf6a1f0100000000000000008310613b03577a184f03e93ff9f4daa797ed6e38ed64bf6a1f0100000000000000008381613af957613af8614fcf565b5b0492506040810190505b6d04ee2d6d415b85acef81000000008310613b40576d04ee2d6d415b85acef81000000008381613b3657613b35614fcf565b5b0492506020810190505b662386f26fc100008310613b6f57662386f26fc100008381613b6557613b64614fcf565b5b0492506010810190505b6305f5e1008310613b98576305f5e1008381613b8e57613b8d614fcf565b5b0492506008810190505b6127108310613bbd576127108381613bb357613bb2614fcf565b5b0492506004810190505b60648310613be05760648381613bd657613bd5614fcf565b5b0492506002810190505b600a8310613bef576001810190505b80915050919050565b5f5f73ffffffffffffffffffffffffffffffffffffffff168373ffffffffffffffffffffffffffffffffffffffff1614158015613caf57508273ffffffffffffffffffffffffffffffffffffffff168473ffffffffffffffffffffffffffffffffffffffff161480613c705750613c6f84846123d3565b5b80613cae57508273ffffffffffffffffffffffffffffffffffffffff16613c968361277f565b73ffffffffffffffffffffffffffffffffffffffff16145b5b90509392505050565b613cc0615023565b565b5f604051905090565b5f5ffd5b5f5ffd5b5f7fffffffff0000000000000000000000000000000000000000000000000000000082169050919050565b613d0781613cd3565b8114613d11575f5ffd5b50565b5f81359050613d2281613cfe565b92915050565b5f60208284031215613d3d57613d3c613ccb565b5b5f613d4a84828501613d14565b91505092915050565b5f8115159050919050565b613d6781613d53565b82525050565b5f602082019050613d805f830184613d5e565b92915050565b5f81519050919050565b5f82825260208201905092915050565b8281835e5f83830152505050565b5f601f19601f8301169050919050565b5f613dc882613d86565b613dd28185613d90565b9350613de2818560208601613da0565b613deb81613dae565b840191505092915050565b5f6020820190508181035f830152613e0e8184613dbe565b905092915050565b5f819050919050565b613e2881613e16565b8114613e32575f5ffd5b50565b5f81359050613e4381613e1f565b92915050565b5f60208284031215613e5e57613e5d613ccb565b5b5f613e6b84828501613e35565b91505092915050565b5f73ffffffffffffffffffffffffffffffffffffffff82169050919050565b5f613e9d82613e74565b9050919050565b613ead81613e93565b82525050565b5f602082019050613ec65f830184613ea4565b92915050565b613ed581613e93565b8114613edf575f5ffd5b50565b5f81359050613ef081613ecc565b92915050565b5f5f60408385031215613f0c57613f0b613ccb565b5b5f613f1985828601613ee2565b9250506020613f2a85828601613e35565b9150509250929050565b5f5f60408385031215613f4a57613f49613ccb565b5b5f613f5785828601613e35565b9250506020613f6885828601613e35565b9150509250929050565b613f7b81613e16565b82525050565b5f602082019050613f945f830184613f72565b92915050565b5f5f5f60608486031215613fb157613fb0613ccb565b5b5f613fbe86828701613ee2565b9350506020613fcf86828701613ee2565b9250506040613fe086828701613e35565b9150509250925092565b5f60ff82169050919050565b613fff81613fea565b82525050565b5f60e0820190508181035f83015261401d818a613dbe565b905081810360208301526140318189613dbe565b90506140406040830188613ff6565b61404d6060830187613f72565b818103608083015261405f8186613dbe565b905061406e60a0830185613f72565b61407b60c0830184613f72565b98975050505050505050565b5f6020828403121561409c5761409b613ccb565b5b5f6140a984828501613ee2565b91505092915050565b5f81519050919050565b5f82825260208201905092915050565b5f819050602082019050919050565b6140e481613e16565b82525050565b5f6140f583836140db565b60208301905092915050565b5f602082019050919050565b5f614117826140b2565b61412181856140bc565b935061412c836140cc565b805f5b8381101561415c57815161414388826140ea565b975061414e83614101565b92505060018101905061412f565b5085935050505092915050565b5f6020820190508181035f830152614181818461410d565b905092915050565b5f60a08201905061419c5f830188613ea4565b6141a96020830187613f72565b6141b66040830186613f72565b6141c36060830185613d5e565b6141d06080830184613f72565b9695505050505050565b6141e381613d53565b81146141ed575f5ffd5b50565b5f813590506141fe816141da565b92915050565b5f5f6040838503121561421a57614219613ccb565b5b5f61422785828601613ee2565b9250506020614238858286016141f0565b9150509250929050565b5f5ffd5b5f5ffd5b7f4e487b71000000000000000000000000000000000000000000000000000000005f52604160045260245ffd5b61428082613dae565b810181811067ffffffffffffffff8211171561429f5761429e61424a565b5b80604052505050565b5f6142b1613cc2565b90506142bd8282614277565b919050565b5f67ffffffffffffffff8211156142dc576142db61424a565b5b6142e582613dae565b9050602081019050919050565b828183375f83830152505050565b5f61431261430d846142c2565b6142a8565b90508281526020810184848401111561432e5761432d614246565b5b6143398482856142f2565b509392505050565b5f82601f83011261435557614354614242565b5b8135614365848260208601614300565b91505092915050565b61437781613fea565b8114614381575f5ffd5b50565b5f813590506143928161436e565b92915050565b5f5f5f5f5f60a086880312156143b1576143b0613ccb565b5b5f86013567ffffffffffffffff8111156143ce576143cd613ccf565b5b6143da88828901614341565b955050602086013567ffffffffffffffff8111156143fb576143fa613ccf565b5b61440788828901614341565b945050604061441888828901614384565b935050606061442988828901613e35565b925050608086013567ffffffffffffffff81111561444a57614449613ccf565b5b61445688828901614341565b9150509295509295909350565b5f67ffffffffffffffff82111561447d5761447c61424a565b5b61448682613dae565b9050602081019050919050565b5f6144a56144a084614463565b6142a8565b9050828152602081018484840111156144c1576144c0614246565b5b6144cc8482856142f2565b509392505050565b5f82601f8301126144e8576144e7614242565b5b81356144f8848260208601614493565b91505092915050565b5f5f5f5f6080858703121561451957614518613ccb565b5b5f61452687828801613ee2565b945050602061453787828801613ee2565b935050604061454887828801613e35565b925050606085013567ffffffffffffffff81111561456957614568613ccf565b5b614575878288016144d4565b91505092959194509250565b5f5f6040838503121561459757614596613ccb565b5b5f6145a485828601613ee2565b92505060206145b585828601613ee2565b9150509250929050565b7f4e487b71000000000000000000000000000000000000000000000000000000005f52602260045260245ffd5b5f600282049050600182168061460357607f821691505b602082108103614616576146156145bf565b5b50919050565b7f55736572206c6f636b65640000000000000000000000000000000000000000005f82015250565b5f614650600b83613d90565b915061465b8261461c565b602082019050919050565b5f6020820190508181035f83015261467d81614644565b9050919050565b7f4e487b71000000000000000000000000000000000000000000000000000000005f52601160045260245ffd5b5f6146bb82613e16565b91506146c683613e16565b92508282019050808211156146de576146dd614684565b5b92915050565b7f436f6f6c646f776e206e6f742066696e697368656400000000000000000000005f82015250565b5f614718601583613d90565b9150614723826146e4565b602082019050919050565b5f6020820190508181035f8301526147458161470c565b9050919050565b7f4e6f74206f776e6572206f66206f66666572656420746f6b656e0000000000005f82015250565b5f614780601a83613d90565b915061478b8261474c565b602082019050919050565b5f6020820190508181035f8301526147ad81614774565b9050919050565b7f417070726f766520636f6e7472616374206669727374000000000000000000005f82015250565b5f6147e8601683613d90565b91506147f3826147b4565b602082019050919050565b5f6020820190508181035f830152614815816147dc565b9050919050565b5f61482682613e16565b91507fffffffffffffffffffffffffffffffffffffffffffffffffffffffffffffffff820361485857614857614684565b5b600182019050919050565b5f6060820190506148765f830186613ea4565b6148836020830185613f72565b6148906040830184613ea4565b949350505050565b5f815190506148a681613ecc565b92915050565b5f602082840312156148c1576148c0613ccb565b5b5f6148ce84828501614898565b91505092915050565b7f4e487b71000000000000000000000000000000000000000000000000000000005f52603260045260245ffd5b7f4d6178206f776e656420726561636865640000000000000000000000000000005f82015250565b5f614938601183613d90565b915061494382614904565b602082019050919050565b5f6020820190508181035f8301526149658161492c565b9050919050565b5f819050815f5260205f209050919050565b5f6020601f8301049050919050565b5f82821b905092915050565b5f600883026149c87fffffffffffffffffffffffffffffffffffffffffffffffffffffffffffffffff8261498d565b6149d2868361498d565b95508019841693508086168417925050509392505050565b5f819050919050565b5f614a0d614a08614a0384613e16565b6149ea565b613e16565b9050919050565b5f819050919050565b614a26836149f3565b614a3a614a3282614a14565b848454614999565b825550505050565b5f5f905090565b614a51614a42565b614a5c818484614a1d565b505050565b5b81811015614a7f57614a745f82614a49565b600181019050614a62565b5050565b601f821115614ac457614a958161496c565b614a9e8461497e565b81016020851015614aad578190505b614ac1614ab98561497e565b830182614a61565b50505b505050565b5f82821c905092915050565b5f614ae45f1984600802614ac9565b1980831691505092915050565b5f614afc8383614ad5565b9150826002028217905092915050565b614b1582613d86565b67ffffffffffffffff811115614b2e57614b2d61424a565b5b614b3882546145ec565b614b43828285614a83565b5f60209050601f831160018114614b74575f8415614b62578287015190505b614b6c8582614af1565b865550614bd3565b601f198416614b828661496c565b5f5b82811015614ba957848901518255600182019150602085019450602081019050614b84565b86831015614bc65784890151614bc2601f891682614ad5565b8355505b6001600288020188555050505b505050505050565b7f4f6666657220696e6163746976650000000000000000000000000000000000005f82015250565b5f614c0f600e83613d90565b9150614c1a82614bdb565b602082019050919050565b5f6020820190508181035f830152614c3c81614c03565b9050919050565b7f4f666665726572206e6f206c6f6e676572206f776e65720000000000000000005f82015250565b5f614c77601783613d90565b9150614c8282614c43565b602082019050919050565b5f6020820190508181035f830152614ca481614c6b565b9050919050565b7f596f7520617265206e6f74206f776e6572206f662072657175657374656420745f8201527f6f6b656e00000000000000000000000000000000000000000000000000000000602082015250565b5f614d05602483613d90565b9150614d1082614cab565b604082019050919050565b5f6020820190508181035f830152614d3281614cf9565b9050919050565b7f417070726f766520636f6e747261637420666972737420286163636570746f725f8201527f2900000000000000000000000000000000000000000000000000000000000000602082015250565b5f614d93602183613d90565b9150614d9e82614d39565b604082019050919050565b5f6020820190508181035f830152614dc081614d87565b9050919050565b5f606082019050614dda5f830186613ea4565b614de76020830185613ea4565b614df46040830184613f72565b949350505050565b5f81905092915050565b5f614e1082613d86565b614e1a8185614dfc565b9350614e2a818560208601613da0565b80840191505092915050565b5f614e418285614e06565b9150614e4d8284614e06565b91508190509392505050565b7f4e6f74206f6666657265720000000000000000000000000000000000000000005f82015250565b5f614e8d600b83613d90565b9150614e9882614e59565b602082019050919050565b5f6020820190508181035f830152614eba81614e81565b9050919050565b5f614ecb82613e16565b9150614ed683613e16565b9250828203905081811115614eee57614eed614684565b5b92915050565b5f81519050919050565b5f82825260208201905092915050565b5f614f1882614ef4565b614f228185614efe565b9350614f32818560208601613da0565b614f3b81613dae565b840191505092915050565b5f608082019050614f595f830187613ea4565b614f666020830186613ea4565b614f736040830185613f72565b8181036060830152614f858184614f0e565b905095945050505050565b5f81519050614f9e81613cfe565b92915050565b5f60208284031215614fb957614fb8613ccb565b5b5f614fc684828501614f90565b91505092915050565b7f4e487b71000000000000000000000000000000000000000000000000000000005f52601260045260245ffd5b5f60408201905061500f5f830185613ea4565b61501c6020830184613f72565b9392505050565b7f4e487b71000000000000000000000000000000000000000000000000000000005f52605160045260245ffdfea2646970667358221220e0cf9caf752b8083cacb1e3c5ef05843fa006623ea99e857f8ff2f8f312b88fc64736f6c634300081c0033",
  "linkReferences": {},
  "deployedLinkReferences": {},
  "immutableReferences": {},
  "inputSourceName": "project/contracts/ResourceSwap.sol",
  "buildInfoId": "solc-0_8_28-ad1d5e89c897fc92af25e7f3a0a6ab2e5419270f"
}